{
  "contractName": "MarkStorage",
  "abi": [
    {
      "inputs": [
        {
          "internalType": "uint256",
          "name": "",
          "type": "uint256"
        }
      ],
      "name": "marks",
      "outputs": [
        {
          "internalType": "address",
          "name": "studentAddress",
          "type": "address"
        },
        {
          "internalType": "uint256",
          "name": "markValue",
          "type": "uint256"
        }
      ],
      "stateMutability": "view",
      "type": "function"
    },
    {
      "inputs": [
        {
          "internalType": "uint256",
          "name": "_markValue",
          "type": "uint256"
        }
      ],
      "name": "submitMark",
      "outputs": [],
      "stateMutability": "nonpayable",
      "type": "function"
    },
    {
      "inputs": [],
      "name": "getMarksCount",
      "outputs": [
        {
          "internalType": "uint256",
          "name": "",
          "type": "uint256"
        }
      ],
      "stateMutability": "view",
      "type": "function"
    },
    {
      "inputs": [
        {
          "internalType": "uint256",
          "name": "index",
          "type": "uint256"
        }
      ],
      "name": "getMark",
      "outputs": [
        {
          "internalType": "address",
          "name": "",
          "type": "address"
        },
        {
          "internalType": "uint256",
          "name": "",
          "type": "uint256"
        }
      ],
      "stateMutability": "view",
      "type": "function"
    }
  ],
  "bytecode": "0x608060405234801561001057600080fd5b50610553806100206000396000f3fe608060405234801561001057600080fd5b506004361061004c5760003560e01c80631f44f6e6146100515780633e00897714610082578063a969e9dd146100b3578063b98b61b9146100d1575b600080fd5b61006b60048036038101906100669190610344565b6100ed565b6040516100799291906103c1565b60405180910390f35b61009c60048036038101906100979190610344565b610141565b6040516100aa9291906103c1565b60405180910390f35b6100bb610200565b6040516100c891906103ea565b60405180910390f35b6100eb60048036038101906100e69190610344565b61020c565b005b600081815481106100fd57600080fd5b90600052602060002090600202016000915090508060000160009054906101000a900473ffffffffffffffffffffffffffffffffffffffff16908060010154905082565b600080600080549050831061018b576040517f08c379a000000000000000000000000000000000000000000000000000000000815260040161018290610462565b60405180910390fd5b6000838154811061019f5761019e610482565b5b906000526020600020906002020160000160009054906101000a900473ffffffffffffffffffffffffffffffffffffffff16600084815481106101e5576101e4610482565b5b90600052602060002090600202016001015491509150915091565b60008080549050905090565b6000811015801561021e575060648111155b61025d576040517f08c379a0000000000000000000000000000000000000000000000000000000008152600401610254906104fd565b60405180910390fd5b600060405180604001604052803373ffffffffffffffffffffffffffffffffffffffff16815260200183815250908060018154018082558091505060019003906000526020600020906002020160009091909190915060008201518160000160006101000a81548173ffffffffffffffffffffffffffffffffffffffff021916908373ffffffffffffffffffffffffffffffffffffffff16021790555060208201518160010155505050565b600080fd5b6000819050919050565b6103218161030e565b811461032c57600080fd5b50565b60008135905061033e81610318565b92915050565b60006020828403121561035a57610359610309565b5b60006103688482850161032f565b91505092915050565b600073ffffffffffffffffffffffffffffffffffffffff82169050919050565b600061039c82610371565b9050919050565b6103ac81610391565b82525050565b6103bb8161030e565b82525050565b60006040820190506103d660008301856103a3565b6103e360208301846103b2565b9392505050565b60006020820190506103ff60008301846103b2565b92915050565b600082825260208201905092915050565b7f496e646578206f7574206f6620626f756e647300000000000000000000000000600082015250565b600061044c601383610405565b915061045782610416565b602082019050919050565b6000602082019050818103600083015261047b8161043f565b9050919050565b7f4e487b7100000000000000000000000000000000000000000000000000000000600052603260045260246000fd5b7f496e76616c6964206d61726b2076616c75650000000000000000000000000000600082015250565b60006104e7601283610405565b91506104f2826104b1565b602082019050919050565b60006020820190508181036000830152610516816104da565b905091905056fea2646970667358221220d8c07803fc205045db66f1cb6fb67e765f54060efcd48b9d1797092f517fcf2d64736f6c63430008100033",
  "immutableReferences": {},
  "source": "pragma solidity ^0.8.16;\r\ncontract MarkStorage {\r\n    // Struct to represent a mark\r\n    struct Mark {\r\n        address studentAddress; // Address of the student who submitted the mark\r\n        uint256 markValue; // The actual mark value\r\n    }\r\n\r\n    // Array to store marks\r\n    Mark[] public marks;\r\n\r\n    // Function to submit a mark\r\n    function submitMark(uint256 _markValue) public {\r\n        // Ensure mark value is within valid range (for simplicity, let's assume between 0 and 100)\r\n        require(_markValue >= 0 && _markValue <= 100, \"Invalid mark value\");\r\n\r\n        // Store the mark along with the sender's address\r\n        marks.push(Mark(msg.sender, _markValue));\r\n    }\r\n\r\n    // Function to get the total number of marks stored\r\n    function getMarksCount() public view returns (uint256) {\r\n        return marks.length;\r\n    }\r\n\r\n    // Function to get a specific mark by index\r\n    function getMark(uint256 index) public view returns (address, uint256) {\r\n        require(index < marks.length, \"Index out of bounds\");\r\n        return (marks[index].studentAddress, marks[index].markValue);\r\n    }\r\n}\r\n",
  "sourcePath": "C:\\Users\\ADMIN\\Desktop\\OnlinerationingWeb3\\contracts\\Markstorage.sol",
  "compiler": {
    "name": "solc",
    "version": "0.8.16+commit.07a7930e.Emscripten.clang"
  },
  "schemaVersion": "3.4.16",
  "updatedAt": "2024-02-26T03:43:32.427Z",
  "devdoc": {
    "kind": "dev",
    "methods": {},
    "version": 1
  },
  "userdoc": {
    "kind": "user",
    "methods": {},
    "version": 1
  }
}